:020000040800F2
:10000000D028002099010008794300081B3100081E
:100010007D3F0008C10B0008096B000800000000CC
:1000200000000000000000000000000001010008C6
:10003000590E000800000000450100087D6400081A
:10004000B30100087D430008B3010008B3010008B4
:10005000B3010008B3010008B3010008B3010008B0
:10006000B3010008B3010008B3010008B3010008A0
:10007000B3010008B3010008B3010008B301000890
:10008000B3010008B3010008B3010008B301000880
:10009000B3010008B3010008B3010008B301000870
:1000A00009650008B3010008B3010008B3010008A6
:1000B00015650008216500082D650008B3010008DA
:1000C000B3010008B3010008B3010008B301000840
:1000D000B3010008B56A0008FD6A0008B301000812
:1000E000B3010008B3010008B3010008DFF80CD029
:1000F00000F08AFC00480047B57A0008D0280020AC
:10010000224B19680868B0E8F00F80F30988BFF344
:100110006F8F4FF0000080F311884EF00D0E704786
:100120000000000006480068006880F3088862B696
:1001300061B6BFF34F8FBFF36F8F00DF00BF00BF0B
:1001400008ED00E0EFF30980BFF36F8F0F4B1A68E3
:1001500020E9F00F106008B54FF0500080F31188CF
:10016000BFF34F8FBFF36F8F08F0B4F94FF000006B
:1001700080F31188BDE8084019680868B0E8F00FFE
:1001800080F30988BFF36F8F704700BF84010020A0
:10019000EFF3058070470000064880470648004797
:1001A000FEE7FEE7FEE7FEE7FEE7FEE7FEE7FEE727
:1001B000FEE7FEE707650008ED000008202A04DBE3
:1001C000203A21FA02F00021704721FA02F3D040D0
:1001D000C2F12002914008431946704740EA0103EA
:1001E0009B0703D009E008C9121F08C0042AFAD2ED
:1001F00003E011F8013B00F8013B521EF9D27047B1
:10020000D2B201E000F8012B491EFBD27047002258
:10021000F6E710B513460A4604461946FFF7F0FF05
:10022000204610BDF0B480EA0102D40F4200B2EBC8
:10023000410F02D20246084611464A0042D0C30D81
:10024000DDB2C1F3C752AD1A202D35DAC1F3160164
:1002500041F4000204B15242C5F1200602FA06F14F
:100260002A411044B3EBD05F23D0C4B1012DA0EBE1
:10027000C35009DCF0BC4FF0004202EAC352DBB2CB
:1002800000F5000000F05EBA400000F1807000EB65
:10029000C350A0F1807040EAD170490009E04908DC
:1002A00041EAC071A0EBC35000F50000400800EB2C
:1002B000C350F0BC00F03DBA6142012202EB4101A3
:1002C000001BF6E7F0BC704781F00041AAE780F020
:1002D0000040A7E780EA010210B502F000434000A9
:1002E00022D04A001FD0010E01EB1261C0F356006C
:1002F000C2F3560240F4000042F40002A0FB0220C8
:1003000000047F39140400D0401C50EA124001D48C
:100310004000491EC2B20C0604EBD010401C40083D
:10032000802A02D003E0002010BD20F00100002947
:1003300000DA0020184310BD30B480EA010202F058
:10034000004530F0004221F0004013D090B1C30DC1
:10035000D40DC2F31601C0F31600E41A41F40001F3
:1003600040F400027D34914201D3641C00E0490056
:10037000002C02DA30BC002070474FF4000000234C
:10038000914201D3891A034340084FEA4101F7D152
:1003900051B1914202D14FF0004105E002D24FF03D
:1003A000010101E06FF0010103EBC450284430BCAF
:1003B00000F0BFB9420005D0C0F3C752524291428B
:1003C00001DC0020704700EBC15070472DE9FE4F63
:1003D00081EA030404F0004421F0004100944FF04E
:1003E000000B23F0004350EA01045ED052EA0304FC
:1003F0005BD0C3F30A54C1F30A552C44A4F2F3347E
:100400000194A0FB0254C1F3130141F48011C3F322
:10041000130343F4801301FB024400FB034E840AE0
:10042000970A44EA815447EA8357A4FB0768029578
:100430008D0A05FB07854FEA932C04FB0C54270516
:10044000029D4FEA065847EA1637B5EB08056EEBF2
:10045000070C870E920E47EA811742EA8312A7FB28
:100460000201B6EB0B0164EB00042B0D43EA0C33E5
:100470005E1844EB1C50DA465146E7FB0201C5F317
:1004800013044FEA0B3343EA14534FEA0432019C3E
:1004900043EA0603A4F10C040294009CCDE900B4E5
:1004A00000F08DF903B0BDE8F08F00200146F9E7B8
:1004B0002DE9F04D81EA030404F0004B21F00045E2
:1004C00014464FF0000A23F0004150EA050220D004
:1004D00054EA01021DD0C5F30A570246C5F31303BF
:1004E000C1F31300C1F30A5640F4801543F480139E
:1004F000A7EB0608101BD64608F2FD3873EB050083
:1005000002D308F1010801E092185B41B8F1000F35
:1005100003DA00200146BDE8F08D00204FF4801181
:10052000064684460EE0171B73EB050705D3121B26
:1005300063EB050306434CEA010C49084FEA30001F
:1005400092185B4150EA0107EDD152EA030012D044
:1005500082EA040083EA0501084305D0101BAB4181
:1005600006D20122002306E000224FF0004302E001
:100570006FF0010253101AEB06004CEB085110EB20
:100580000A0041EB0B01BDE8F04D00F009B9C10FC5
:1005900080EAE0700844CA079623002100F0D2B830
:1005A00096230022114600F0CDB80EB540F233413B
:1005B00002910021CDE900110A460B4600F0FFF838
:1005C00003B000BD00F0004220F00040C10DC0F3B8
:1005D000160040F400007F2901DA002070479629B8
:1005E00003DCC1F19601C84001E096398840002A39
:1005F000F4D04042704720F00040C10DC0F3160017
:1006000040F400007F2901DA00207047962903DCBE
:10061000C1F19601C840704796398840704700F094
:10062000004230F000400AD0C10D01F56071C0F306
:10063000160042EA0151C2084007114370470020EA
:100640000146704701F0004330B421F0004150EA08
:10065000010206D00A0DA2F56072C1F31301002A4F
:1006600002DC30BC00207047440F44EAC104C100E2
:10067000E01830BC00EBC25000F05BB8002801DB92
:10068000C0F10040002901DBC1F100418142704707
:10069000002801DBC0F10040002901DBC1F100416D
:1006A0008842704730B50B460146002020220124C5
:1006B00009E021FA02F59D4205D303FA02F5491B30
:1006C00004FA02F52844151EA2F10102F1DC30BD46
:1006D0002DE9F05F0546002092469B468846064677
:1006E000814640241BE02846414647462246FFF704
:1006F00065FD53465A46C01A914110D3114618461B
:10070000224600F093F92D1A67EB01084F46224666
:100710000120002100F08AF917EB00094E41201E4C
:10072000A4F10104DFDC484631462A464346BDE8D1
:10073000F09F0029A8BF7047401C490008BF20F067
:100740000100704710B4B0FA80FC00FA0CF050EAD7
:10075000010404BF10BC704749B1CCF1200421FA58
:1007600004F411FA0CF118BF012121430843A3EB53
:100770000C01CB1D4FEA00614FEA102042BF002060
:1007800010BC704700EBC35010440029A4BF10BC3C
:100790007047401C490008BF20F0010010BC7047A2
:1007A00010B5141E73F1000408DA401C41F1000179
:1007B00092185B411A4301D120F0010010BD2DE9D0
:1007C000F04D92469B4611B1B1FA81F202E0B0FAC7
:1007D00080F22032904600F029F904460F4640EAA4
:1007E0000A0041EA0B0153465A46084313D011460A
:1007F00053EA010019D0C8F140025046FFF7DEFC71
:1008000005460E4650465946424600F00FF9084349
:1008100005D0012004E020463946BDE8F08D0020D7
:10082000054346EAE0762C4337430A986305E40A19
:10083000A0EB08000022FD0A44EA47540A3002D522
:1008400000200146E9E7010510196941DDE9084585
:1008500000196941BDE8F04DA2E72DE9FE4F804641
:1008600081EA0300C00F0C46009021F0004123F004
:100870000045B8EB0200A94105D24046214690460A
:100880001C460B46024623F00040104347D0270D7C
:10089000C7F30A00C3F30A510290401A019040289E
:1008A0006BDAC3F3130040F4801B0098924620B12A
:1008B0000023D2EB030A63EB0B0B01985946C0F1FE
:1008C0004002504600F0B2F806460D4650465946E2
:1008D000019A00F0BAF810EB08006141002487EAA1
:1008E000115284EAE7731A4340D0009A62B3019A26
:1008F000012A4FEA075215DC001B61EB02014FF0A1
:10090000004202EA0752CDE90042001C41F5801185
:1009100032462B46FFF753FF03B0BDE8F08F404649
:100920002146F9E7001B61EB0201001C41F5801331
:1009300000185B412018A2F5001747EB030140EABD
:10094000D570B6196D4111E06D084FEA360645EADB
:10095000C0754FEA0752001B61EB0201001C41F514
:10096000801149084FEA30000019514132462B46A8
:1009700003B0BDE8F04FFFF713BF0098012240001D
:100980000023D0EB020263EBE073009821464FEAAC
:10099000E074B8EB000061EB0401E9E783F0004389
:1009A0005BE781F0004158E7C1F30A52C1F313013C
:1009B00040F2FF3341F480119A4202DA00200146EE
:1009C000704740F233439A42A2F2334202DC524271
:1009D000FFF7F4BB00F02AB830B5041E71F1000433
:1009E00004DB4FF00044404264EB0101141E73F13C
:1009F000000405DB1C464FF00043524263EB040346
:100A0000994208BF904230BD064C074D06E0E068B1
:100A100040F0010394E8070098471034AC42F6D345
:100A2000FFF768FB989E0008B89E0008202A04DBA8
:100A3000203A00FA02F1002070479140C2F12003F1
:100A400020FA03F3194390407047202A06DBCB17A6
:100A5000203A41FA02F043EAE07306E041FA02F379
:100A6000D040C2F12002914008431946704730B58A
:100A70008C1810F8012B12F00F0301D110F8013B74
:100A8000120906D110F8012B03E010F8015B01F800
:100A9000015B5B1EF9D101E001F8013B521EFBD165
:100AA000A142E6D3002030BD0EB5FF238DE80E0035
:100AB00002460123A121064800F030FE10B14FF09C
:100AC000FF300EBD322007F053F900200EBD0000AC
:100AD000800900202DE9FE4F07460E4614460122EC
:100AE0009103354800F041FD4FF0FF39A4B107F004
:100AF0000700C0F108054FF0FF08AC4212DCCDE959
:100B0000014801233A46A0212C48009600F07AFFC4
:100B100020B14846BDE8FE8F4846FBE70A2007F0B3
:100B200099FB41E0A8B2CDE9010801233A46A02192
:100B30000096224800F066FF08B14846EAE77819B7
:100B4000C7B2601B84B23544052007F083FB4FEA2F
:100B5000D40A00264FF0080B14E0CDE901B80123B8
:100B60003A46A0211548009500F04CFF08B14846D0
:100B7000D0E7052007F06EFB0837FFB2083CA4B2AF
:100B80000835761C5645E8DB74B1CDE901480123F0
:100B90003A46A0210948009500F034FF08B14846C4
:100BA000B8E7052007F056FB00224FF480410248C9
:100BB00000F0DBFC0020ADE70010014080090020C0
:100BC000FEE700002DE9F04100221E21104602F050
:100BD0006FFE01224321002002F06AFE02226921F9
:100BE000002002F065FE15220021032002F060FEC5
:100BF00000221146062002F05BFE734C6069FFF78D
:100C0000FAFCC0B26426B0FBF6F21821032002F011
:100C1000E9FD6069FFF7EFFCC0B2B0FBF6F106FB3F
:100C200011000A25B0FBF5F22021032002F0DAFDC5
:100C30006069FFF7E0FCC0B2B0FBF5F105FB110203
:100C40002821032002F0CEFDA069FFF7D4FCC0B23A
:100C5000B0FBF6F23E21032002F0C4FDA069FFF7CD
:100C6000CAFCC0B2B0FBF6F106FB1100B0FBF5F216
:100C70004621032002F0B6FDA069FFF7BCFCC0B21C
:100C8000B0FBF5F105FB11024E21032002F0AAFD95
:100C90004E4F80343946A069FFF74EFBFFF7ABFC9F
:100CA000C2B26221032002F09DFDA069FFF7A3FC00
:100CB000C0B2B0FBF6F106FB1100B0FBF5F26A2101
:100CC000032002F08FFDA069FFF795FCC0B2B0FBD6
:100CD000F5F105FB11027221032002F083FD394674
:100CE000E06BFFF729FBFFF786FCC2B21821062054
:100CF00002F078FD364EE06B3146FFF71DFBFFF743
:100D00007AFCC2B22021062002F06CFDE06BFFF7F6
:100D100072FCC2B22821062002F064FD3946206C24
:100D2000FFF70AFBFFF767FCC2B23E21062002F084
:100D300059FD3146206CFFF7FFFAFFF75CFCC2B2A9
:100D40004621062002F04EFD206CFFF754FCC2B293
:100D50004E21062002F046FD3946606CFFF7ECFAA2
:100D6000FFF749FCC2B26221062002F03BFD31468A
:100D7000606CFFF7E1FAFFF73EFCC2B26A21062081
:100D800002F030FD606CFFF736FCC2B27221062023
:100D900002F028FD8034A06CFFF72DFCC0B2B0FB40
:100DA000F5F20021084602F01DFDA06CFFF723FCC0
:100DB000C0B2B0FBF5F105FB1102BDE8F04108211E
:100DC000002002F00FBD0000040000200000C84217
:100DD0000000204110B502F088FC1D4C09220021C2
:100DE000607802F021FD0A221021607802F01CFDDB
:100DF0000B222021607802F0F5FC1F221021E07800
:100E000002F012FD20221146E07802F00DFD2122B1
:100E10003021E07802F008FD22224021E07802F043
:100E200003FD26221021207902F0FEFC202211462B
:100E3000207902F0F9FC21223021207902F0F4FC23
:100E400020792222BDE81040402102F0EDBC0000D4
:100E50000400002000F070BA704700002DE9F04156
:100E600000221E21104602F023FD01224321002012
:100E700002F01EFD02226421002002F019FD15225D
:100E80000021022002F014FD00221146042002F08D
:100E90000FFD01220021062002F0C6FC02221021D3
:100EA000062002F0C1FC0B222021062002F09AFC51
:100EB000A74C6069FFF79FFBC0B26426B0FBF6F257
:100EC0001821022002F08EFC6069FFF794FBC0B28B
:100ED000B0FBF6F106FB11000A25B0FBF5F220216C
:100EE000022002F07FFC6069FFF785FBC0B2B0FB17
:100EF000F5F105FB11022821022002F073FCA06924
:100F0000FFF779FBC0B2B0FBF6F23E21022002F0FF
:100F100069FCA069FFF76FFBC0B2B0FBF6F106FBFE
:100F20001100B0FBF5F24621022002F05BFCA06943
:100F3000FFF761FBC0B2B0FBF5F105FB11024E21DA
:100F4000022002F04FFC834F80343946A069FFF73E
:100F5000F3F9FFF750FBC2B26221022002F042FC1B
:100F6000A069FFF748FBC0B2B0FBF6F106FB110029
:100F7000B0FBF5F26A21022002F034FCA069FFF711
:100F80003AFBC0B2B0FBF5F105FB11027221022061
:100F900002F028FC704EE06B3146FFF7CDF9FFF709
:100FA0002AFBC2B21421042002F01CFCE06BFFF704
:100FB00022FBC0B2B0FBF5F105FB11021C2104209D
:100FC00002F010FC0A222421042002F00BFCE06B4A
:100FD00005F0DAFB02462821042002F003FC31462A
:100FE000206CFFF7A9F9FFF706FBC2B23A210420F3
:100FF00002F0F8FB206CFFF7FEFAC0B2B0FBF5F18F
:1010000005FB11024221042002F0ECFB0A224A21D6
:10101000042002F0E7FB206C05F0B6FB02464E21EF
:10102000042002F0DFFB3146606CFFF785F9FFF723
:10103000E2FAC2B25E21042002F0D4FB606CFFF73A
:10104000DAFAC0B2B0FBF5F105FB1102662104200B
:1010500002F0C8FB0A226E21042002F0C3FB606C80
:1010600005F092FB02467221042002F0BBFBA06F48
:10107000FFF7C1FA3949C0B2B0FBF1F22C210620CA
:1010800002F0B0FB3649A06FFFF756F9FFF7B3FA4D
:10109000C0B2B0FBF5F105FB11023721062002F0CA
:1010A000A1FB3049A06FFFF747F9FFF7A4FAC0B2E0
:1010B000B0FBF5F105FB11024221062002F092FB84
:1010C0003946A06FFFF738F9FFF795FAC0B2B0FBC9
:1010D000F5F105FB11024D21062002F083FB31469C
:1010E000A06FFFF729F9FFF786FAC0B2B0FBF5F160
:1010F00005FB11025821062002F074FBA06FFFF7D8
:101100007AFAC0B2B0FBF5F105FB110263210620AB
:1011100002F068FB16226C21062002F0C9FB803425
:10112000A06CFFF768FAC0B2B0FBF5F200210846E8
:1011300002F058FBA06CFFF75EFAC0B2B0FBF5F10D
:1011400005FB1102BDE8F0410821002002F04ABB76
:10115000040000200000C84200002041A0860100D9
:1011600000401C4600007A4472B6FEE72DE9F047C5
:101170000024DFF8B0A00421504600F0E7F9012771
:10118000294D002630B9AF72032006F0F1FDAE7292
:1011900001242F724FF480684146504600F0D6F982
:1011A00038B9AF72032006F0E3FDAE7202240220CC
:1011B00028724FF400694946504600F0C7F938B923
:1011C000AF72032006F0D4FDAE7203240320287210
:1011D0000221504600F0BAF938B9AF72032006F088
:1011E000C7FDAE720424042028720221504600F08C
:1011F000ADF9012813D10421504600F0A7F90128C8
:101200000DD14146504600F0A1F9012807D14946C9
:10121000504600F09BF9012801D100242E7220468F
:10122000BDE8F087000C0140040000200EB5FF234C
:101230008DE80E0002460123A121064800F06EFA57
:1012400010B14FF0FF300EBD322000F075F80020D5
:101250000EBD00008009002010B590F8211000227A
:10126000022905D00421816380F82020012010BDCF
:1012700001680B6823F00E030B6001680B6823F014
:1012800001030B6090F84030C46B012101FA03F3B5
:10129000636080F8211080F82020104610BD000007
:1012A00010B5002490F82110022903D00421816395
:1012B00001243DE001680A6822F00E020A6001681C
:1012C0000A6822F001020A601A4A0168914201D1BB
:1012D000012121E0174A1432914201D110211BE073
:1012E000144A2832914201D1891515E0114A3C3245
:1012F000914201D189140FE00E4A5032914202D13D
:101300004FF4803108E00B4A6432914202D14FF42D
:10131000801101E04FF08071064A083A51600121C6
:1013200080F82110002180F82010416B01B188471E
:10133000204610BD0800024070B5044600F01CF9BC
:101340000546601C02D004480078044400F014F9FB
:10135000401BA042FAD370BD740100202DE9F84F64
:1013600000240023DFF8C4914FF00F08A9F1040B0B
:1013700009F1040AABF1040ED1E00127A7403A407D
:10138000BA4275D1DFF8A8C14D68A5EB0C066545DA
:101390002BD00DDC032D34D005DC35B3012D19D055
:1013A000022D2FD11BE0112D16D0122D2AD119E0BC
:1013B000B6F5881F19D006DCB6F5803F15D0B6F516
:1013C000801F1FD111E0B6F5001F0ED0B6F5041F27
:1013D00018D10AE0CB6815E0CB681B1D12E0CB6882
:1013E00008330FE0CB680C330CE08B6823B1012B82
:1013F00004D00823476105E0042303E008230761C4
:1014000000E00023FF2A01D8054601E000F10405B1
:1014100002D84FEA840603E0A4F108064FEA8606E4
:101420002F6808FA06FC27EA0C0703FA06F647EAD3
:1014300006072F604D68ED0070D53E4DAE6946F051
:101440000106AE61AD6905F0010500953A4D24F045
:1014500003067719BE68A5072D0F08FA05FC26EAD2
:101460000C06DFF8D8C0604503D14FF0000C17E040
:1014700054E0DFF8CCC0604502D14FF0010C0FE022
:10148000DFF8C0C0604502D14FF0020C08E0DFF881
:10149000B8C0604502D14FF0030C01E04FF0040CDE
:1014A0000CFA05FC4CEA060CC7F808C04D68ED02C2
:1014B00005D5D9F800501543C9F8005004E0D9F813
:1014C00000509543C9F800504D68AD0205D5DAF8D3
:1014D00000501543CAF8005004E0DAF80050954374
:1014E000CAF800504D68AD0305D5DBF80050154330
:1014F000CBF8005004E0DBF800509543CBF80050E7
:101500004D68ED0305D5DEF800501543CEF80050C8
:1015100004E0DEF800509543CEF80050641C0A68E1
:1015200032FA04F57FF429AFBDE8F88F08040140D2
:1015300000001110001002400000014000080140AE
:10154000000C014000100140001401408068084276
:1015500001D00120704700207047C26821EA0203D1
:101560000A4043EA024101617047002A01D001614B
:1015700070470904016170470148806870470000A6
:101580007401002070B50446002C04D094F83D008E
:10159000002510B106E0012070BD84F83C502046C3
:1015A00000F0D2FA242084F83D002068016821F080
:1015B000010101602068016841F400410160206878
:1015C000016821F40041016000F0E0FC4F4B6168CC
:1015D000994203D84E49884203D304E04D498842DA
:1015E00001D2012070BD4C49B0FBF1F12268566870
:1015F00026F03F060E43566062689A4201D8491CA5
:1016000007E04FF4967251434FF47A72B1FBF2F156
:10161000491C2268166A26F03F0631431162616850
:10162000994210D84900401EB0FBF1F2521CC2F39F
:101630000B02042A01D2042022E0B0FBF1F0401C8E
:10164000C0F30B001CE0A268F2B301EBC10303EB93
:101650000116431EB3FBF6F35B1C43F480431B05EA
:1016600049D092B301EBC10202EB0111401EB0FB65
:10167000F1F0401CC0F30B0040F4804040F4004007
:101680002168CA694CF6FF739A431043C861D4E9D4
:10169000071001432068026822F0C0021143016074
:1016A000D4E9030101432068826848F2FF339A437A
:1016B00011438160D4E9051001432068C26822F01B
:1016C000FF021143C16001E00EE016E020680168EE
:1016D00041F0010101602564202084F83D0025636C
:1016E00084F83E50002070BD01EB4106431EB3FB61
:1016F000F6F35B1CB3E70120C2E701EB4101401E9A
:10170000B0FBF1F0401CC0F30B00B7E7A08601006E
:1017100080841E0000093D0040420F002DE9FF4F6C
:1017200083B00446DDE91198109F8A46934600264F
:101730000296FFF721FF054694F83D00202803D0CC
:10174000022007B0BDE8F08F19230122A9492046E5
:10175000009501F029FE08B10220F2E794F83C0060
:10176000012807D0012084F83C0020680168C907DF
:1017700002D005E00220E4E7016841F001010160C8
:101780002068016821F400610160222084F83D0096
:10179000402084F83E0026646762A4F82A90608D99
:1017A00020859548E062CDE900855A46514620469D
:1017B000069B01F0CBFC08B10120C2E7208D80B16F
:1017C000012817D0022825D02068016841F48061E3
:1017D000016020684169806901902027DFF81C9230
:1017E000FFE02068416981690191016841F400715D
:1017F0000160F2E72068016821F48061016072B63F
:101800002068416981690191016841F400710160BA
:1018100062B6E2E72068016841F40061016072B6D7
:101820002068416981690191016821F4806101604A
:1018300062B6D2E703287DD801280BD002281FD03A
:101840004346002249462046009501F0ADFDE8B32D
:10185000012076E72A464146204601F05FFE08B1A6
:1018600001206EE720680069616A0870606A401CA8
:101870006062208D401E2085608D401E6085B0E036
:101880004346002249462046009501F08DFD08B1EF
:10189000012056E772B62068016841F400710160CA
:1018A00020680069616A0870606A401C6062218D6E
:1018B000491E2185618D491E618562B621680969CD
:1018C0000170606A401C6062208D00E005E0401EEF
:1018D0002085608D401E608583E02068016821F4CA
:1018E0008061016072B620680069616A0870606A90
:1018F000401C6062208D401E2085608D401E6085EA
:101900003F4846F2A8110068B0FBF1F0C0EBC00000
:1019100000EB800002900298401E0290029830B3C3
:1019200020684069C0434007F5D42068016841F44D
:10193000007100E027E0016020680069616A0870BA
:10194000606A401C6062218D491E2185618D491E9F
:10195000618562B6216809690170606A401C606235
:10196000208D401E2085608D401E608539E044F842
:10197000306F6773A673206940F02000206162B663
:1019800026730120DDE62A464146204601F0C6FDC9
:1019900008B10120D5E620680069616A0870606AB4
:1019A000401C6062208D401E81B22185608D401EEA
:1019B000608520684269D243520712D4032903D1BB
:1019C000016821F48061016020680069616A087023
:1019D000606A401C6062208D401E2085608D401E24
:1019E0006085208D00287FF425AF3C346770A67099
:1019F0002670A6E6020010000000FFFF04000100B0
:101A0000800100202DE9FF4F83B00446DDE91198E5
:101A10008A469346109DFFF7AFFD064694F83D00B9
:101A2000202803D0022007B0BDE8F08F192301223F
:101A300043492046009601F0B7FC08B10220F2E7C6
:101A400094F83C00012807D0012084F83C0020686D
:101A50000168C90702D005E00220E4E7016841F00F
:101A6000010101602068016821F40061016021200A
:101A700084F83D00402084F83E000027276465621A
:101A8000A4F82A90608D20852E48E062CDE900867A
:101A90005A4651462046069B01F0F8FB80B30120D0
:101AA000C1E732464146204601F073FD48B1206C43
:101AB000042804D12068016841F40071016001200C
:101AC000B1E7606A216800780861656A6D1C65622B
:101AD000208D401E80B22085618D491E618523685E
:101AE0005969C94349070BD450B128781861606A15
:101AF000401C6062208D401E2085608D401E6085E8
:101B0000208D0028CDD132464146204601F020FCF0
:101B100048B1206C042804D12068016841F40071A8
:101B2000016001207FE71F3454F81F0C016841F465
:101B3000007101602020A077E7776777002072E7C7
:101B4000020010000000FFFF10B586B000210291D6
:101B500003910491059100681349884222D1134CE6
:101B6000A06940F00800A061A06900F008000190A1
:101B70004FF440700290122003900320059002A9B8
:101B80000B48FFF7EBFB0B49486840F0E06040F082
:101B900002004860E06940F40010E061E06900F490
:101BA0000010019006B010BD00540040001002402B
:101BB000000C014000000140024881680278114495
:101BC000816070477401002010B50748016841F03A
:101BD00010010160032000F0AFF80F2000F006F8BC
:101BE00000F050F8002010BD0020024030B587B052
:101BF00005462048C16941F00101C161C06900F09A
:101C00000100009001A902A800F09CF90598B8B164
:101C100000F0BCF940001849B0FBF1F1491E17482B
:101C20004FF08042026040F2E732C2604160002221
:101C300002618260826100F0A3FD04461CB115E0E0
:101C400000F0A4F9E7E70D4800F0F4FD04466CB994
:101C50001C2000F043F8102D07D2002229461C203A
:101C600000F04AF80648056000E0012407B020466D
:101C700030BD00000010024040420F00940B0020D5
:101C80007801002008B51348816941F001018161A4
:101C9000816901F001010091C16941F08051C16188
:101CA000C06900F08050009000220F21901E00F0CB
:101CB00023F800220521012000F01EF8012000F089
:101CC0000DF80549486820F0E06040F00070486079
:101CD00008BD00000010024000000140002809DBA0
:101CE00000F01F02012191404009800000F1E02036
:101CF000C0F8001170470000F0B40D460D4B1B6892
:101D0000C3F30223C3F10704042C00D90424191DD2
:101D1000072901D2002300E0DB1E012606FA04F1A8
:101D2000491E294099409E40761E16403143F0BC22
:101D300004F088BF0CED00E000F00701054A1068D0
:101D40004FF6FF03184040EA0120034908431060A2
:101D5000704700000CED00E00000FA0530B51C49AA
:101D60000A68036822F0E0021A430A60194C2168ED
:101D700021F480312160211F0A6822F480320A6038
:101D8000144B08331A6822F480321A601A1F15683F
:101D900025F4803515604568ED0303D50D6845F4DD
:101DA00080350D604168890303D5216841F4803195
:101DB00021600179C90703D0116841F480311160B5
:101DC0000079800703D5186840F48030186030BD72
:101DD0000070004004040140014900200861704780
:101DE00000000E42014901200861704700000E42C8
:101DF0002DE9F04704460D46002C17D0DFF830815E
:101E0000D8F8000000F00700A84211D2D8F800006E
:101E100020F007002843C8F80000D8F8000000F0C0
:101E20000700A84204D00120BDE8F0870120FBE7AD
:101E30002068404E810712D5400703D5706840F4F2
:101E4000E06070602078000703D5706840F460504F
:101E500070607068A16820F0F0000843706020781E
:101E6000C0072CD06068012806D0022809D031684C
:101E700089070BD40120D7E73168890306D40120F4
:101E8000D2E73168890101D40120CDE7716821F0E2
:101E9000030101437160FFF76FFB074641F2883988
:101EA00006E0FFF769FBC01B484501D90320BBE7EB
:101EB0007068616800F00C00B0EB810FF1D1D8F8C8
:101EC000000000F00700A8420ED9D8F8000020F06A
:101ED00007002843C8F80000D8F8000000F0070009
:101EE000A84201D001209FE72078400705D57068FF
:101EF000E16820F4E060084370602078000706D5B0
:101F00007068216920F4605040EAC100706000F000
:101F10005DF87168084AC1F30311515CC840074974
:101F2000086007480068FFF761FE00207CE70000BA
:101F300000200240001002402A9E0008800100207C
:101F4000780100200F2202600B4A536803F003035C
:101F50004360536803F0F0038360536803F4E06365
:101F6000C360526802F46052D208026103480068FC
:101F700000F0070008607047001002400020024097
:101F800001480068704700008001002000B5FFF79D
:101F9000F7FF04494968044AC1F30221515CC84073
:101FA00000BD0000001002403A9E000800B5FFF797
:101FB000E7FF04494968044AC1F3C221515CC840A3
:101FC00000BD0000001002403A9E00080E4B596808
:101FD0000E4801F00C02042A11D0082A0FD10C4837
:101FE000C1F38342805CC9030AD55968084AC1F32A
:101FF0004041921E515C054A5043B0FBF1F07047DE
:1020000004494843704700000010024000127A0063
:102010001A9E000800093D002DE9F84F0446002CE7
:102020000ED02078D94DC0075ED06868C0F381001B
:1020300001280BD06868C0F38100022803D00CE0AF
:102040000120BDE8F88F6868C00306D528688003C2
:102050004AD56068A8BB0120F3E76068B0F5803F0F
:1020600011D0A8B1B0F5A02F1BD0286820F4803083
:102070002860286820F480202860606830B3FFF76B
:102080007BFA06461EE0286840F480302860F4E7BA
:10209000286820F480302860286820F48020286098
:1020A000EBE7286840F480202860286840F48030FE
:1020B0002860E2E7FFF760FA801B642802D903205A
:1020C000BFE711E028688003F4D50DE0FFF754FA6C
:1020D000064606E0FFF750FA801B642801D903206A
:1020E000AFE728688003F5D42078DFF8A482800762
:1020F0004FF0010A4FF0000945D5686810F00C0F49
:1021000007D06868C0F38100022812D16868C00354
:102110000FD42868800704D52069012801D0012048
:102120008FE72868616920F0F80040EAC100286064
:1021300029E02069B8B1C8F800A0FFF71DFA0646EB
:1021400006E0FFF719FA801B022801D9032078E77F
:1021500028688007F5D52868616920F0F80040EA12
:10216000C10028600FE0C8F80090FFF705FA0646A6
:1021700006E0FFF701FA801B022801D9032060E77F
:1021800028688007F5D42078000726D58148A16902
:1021900099B1C0F800A0FFF7EFF9064606E0FFF797
:1021A000EBF9801B022801D903204AE7686A8007FF
:1021B000F5D5012002F09CFA0FE0C0F80090FFF77F
:1021C000DBF9064606E0FFF7D7F9801B022801D9A4
:1021D000032036E7686A8007F5D42078400773D576
:1021E0000026E869C00008D4E86940F08050E86142
:1021F000E86900F0805000900126DFF89CB1DBF820
:102200000000C00514D4DBF8000040F48070CBF867
:102210000000FFF7B1F9074606E0FFF7ADF9C01B74
:10222000642801D903200CE7DBF80000C005F4D5D1
:10223000E068012812D0B0B105281DD0286A20F02E
:1022400001002862286A20F004002862E06841F258
:10225000883B28B3FFF790F907461DE0286A40F055
:1022600001002862F2E7286A20F001002862286A4B
:1022700020F004002862E9E7286A40F004002862A0
:10228000286A40F001002862E0E7FFF775F9C01BFB
:10229000584501D90320D4E6286A8007F5D50DE01A
:1022A000FFF76AF9074606E0FFF766F9C01B5845D5
:1022B00001D90320C5E6286A8007F5D4012E03D191
:1022C000E86920F08050E861E069A0B36968C1F373
:1022D0008101022946D0022805D0C8F86090FFF796
:1022E0004BF904463AE0C8F86090FFF745F9064616
:1022F00006E0FFF741F9801B022801D90320A0E680
:1023000028688001F5D4206AB0F5803F05D168685F
:10231000A16820F4003008436860D4E9080108434C
:10232000696821F4741108436860C8F860A0FFF779
:1023300023F9044607E026E0FFF71EF9001B0228F8
:1023400001D903207DE628688001F5D51BE0FFF761
:1023500013F9001B022801D9032072E628688001C6
:10236000F5D410E001280CD06868226A00F48031AE
:10237000914204D1616A00F47010884203D00120B8
:102380005FE601205DE600205BE6000000100240F1
:1023900000004242800442420070004070B5044692
:1023A000002C09D0606A002540B125616561A562F5
:1023B00094F8510040B10CE0012070BD6068B0F5A8
:1023C000827FF4D0E561F2E784F85050204600F0B7
:1023D0003FF8022084F851002068016821F0400194
:1023E0000160A088218900F4827001F4044108434F
:1023F000A18901F400610843217C01F00201084336
:10240000217D01F001010843218B01F40071084393
:10241000217F01F03801084394F8201001F0800179
:102420000843218D01F40051084321680860A06928
:10243000042101EA1040216848602068C16921F444
:102440000061C1616565012084F85100002070BD04
:1024500030B585B00024019402940394049400687C
:102460001549884226D11548C16941F48041C161AE
:10247000C16901F480410091816941F008018161E5
:10248000806900F0080000904FF420400190022085
:102490000290032004900A4D01A92846FEF75EFF32
:1024A0004FF48041019102940121039101A9284632
:1024B000FEF754FF05B030BD003800400010024068
:1024C000000C01402DE9FF4F81B004460E9E93465B
:1024D0001F460125FFF750F8804694F851006168C7
:1024E00001280AD0B1F5827F03D1A16809B9042877
:1024F00003D0022005B0BDE8F08F0298A0B3BBF175
:10250000000F32D0380030D094F8500001282ED07F
:102510004FF0010A84F850A094F85100042802D02A
:10252000052084F851004FF00009C4F85490C4F815
:1025300038B0E787A78702982063E786A786C4F8A4
:102540004090C4F8449020680168490603D40168AB
:1025500041F040010160E068B0F5006F09D06068AB
:10256000F0B3012F4DD082E0FFE70120C2E7022047
:10257000C0E7606808B1012F3CD1206B216800885A
:10258000C860206B801C2063E08E401EE08631E036
:102590002068816889070DD5E18E59B1012D09D1D7
:1025A000216B0988C160206B801C2063E08E401E77
:1025B000E086002520688168C9070BD0E18F49B10A
:1025C000C068A16B0880A06B801CA063E08F401ED8
:1025D000E0870125FEF7D0FFA0EB0800B04200E045
:1025E0000FE007D3701C05D084F851A084F85090F8
:1025F00003207FE7E08E0028CAD1E08F0028C7D1F2
:102600003BE0206B216800780873206B401C20633E
:10261000E08E401EE0862AE02068816889070DD59B
:10262000E18E59B1012D09D1216B09780173206B1D
:10263000401C2063E08E401EE086002520688168F3
:10264000C9070BD0E18F49B1C068A16B0870A06BBE
:10265000401CA063E08F401EE0870125FEF78CFF41
:10266000A0EB0800B04201D3701C12D18EB1E08EF5
:102670000028D1D1E08F0028CED1424631462046F5
:1026800002F0F8F858B12020606584F850900120DD
:1026900030E784F851A084F8509003202AE7A0681E
:1026A00018B92068C1688068009084F851A084F847
:1026B0005090606D08B101201CE700201AE77047B8
:1026C000704710B590F83C20012A22D0012280F8F2
:1026D0003C20CA6800238C6822F4407222434C6874
:1026E00022F4806222430C6822F4006222430C69C7
:1026F00022F4805222434C6922F400522243C969D9
:1027000022F480420A4301684A6480F83C30002089
:1027100010BD022010BD000070B590F83C20012AC9
:1027200025D0012680F83C60022280F83D20026816
:102730005468936824F070050C682C4354600D4C69
:102740000268A24208D0B2F1804F05D00A4CA242E2
:1027500002D00A4CA24204D123F0800349681943F5
:1027600091603C30467000210170002070BD022055
:1027700070BD0000002C0140000400400008004033
:1027800010B50446002C03D094F83D0010B107E0CA
:10279000012010BD002084F83C00204600F016F80F
:1027A000022084F83D00211D206803F0C5FE0120B1
:1027B0003D3460726070A070E07020716071A07133
:1027C000E07120722070002010BD000008B5006884
:1027D000154A1649904211D1C86940F00200C861FB
:1027E000C86900F002000090002205211D20FFF7BB
:1027F00083FABDE808401D20FFF770BA0C4A9042EA
:1028000011D1C86940F00400C861C86900F0040033
:102810000090002205211E20FFF76EFABDE8084057
:102820001E20FFF75BBA08BD000400400010024004
:102830000008004090F83D10012901D001207047A8
:10284000022180F83D100168CA6842F00102CA60A6
:1028500000680E49884208D0B0F1804F05D00C497D
:10286000884202D00B49884209D1816801F00701F2
:10287000062908D0016841F00101016003E0016808
:1028800041F001010160002070470000002C014070
:10289000000400400008004070B50446002594F88C
:1028A0003C00012817D0012684F83C60022084F8FF
:1028B0003D002068826822F0770222F47F42826025
:1028C0000868502838D00DDC202853D005DC90B3A0
:1028D000102811D14EE0022070BD30284AD0402887
:1028E0000AD13DE0602831D070280CD0B0F5805F6F
:1028F00003D0B0F5005F12D001253C346670002093
:102900002070284670BDCB68D1E90121206803F012
:102910004FFE2068816841F077018160EDE7CB6868
:10292000D1E90121206803F043FE2068816841F469
:1029300080418160E1E71DE0CA684968206803F0D2
:10294000FFFE5021206803F03DFED6E7CA684968C3
:10295000206803F006FF6021206803F033FECCE717
:10296000CA684968206803F0EBFE4021206803F044
:1029700029FEC2E722680146104603F023FEBCE7A9
:1029800070472DE9F04104462068C56806694FF09C
:102990000007B10714D5A90712D5F91E016101205E
:1029A000207720688069800703D02046FFF7E8FF82
:1029B00005E0204600F0A8F8204600F055F92777FA
:1029C000700717D5680715D521686FF004000861F6
:1029D000022020772068806910F4407F03D02046D1
:1029E000FFF7CEFF05E0204600F08EF8204600F00D
:1029F0003BF92777300716D5280714D521686FF0E3
:102A000008000861042020772068C069800703D08F
:102A10002046FFF7B5FF05E0204600F075F8204698
:102A200000F022F92777F00617D5E80615D52168BA
:102A30006FF010000861082020772068C06910F44A
:102A4000407F03D02046FFF79BFF05E0204600F0C3
:102A50005BF8204600F008F92777F00708D0E80770
:102A600006D021686FF001000861204600F0FEF8F2
:102A7000300608D5280606D521686FF08000086169
:102A80002046FFF71CFE700608D5680606D52168AB
:102A90006FF040000861204600F01AF9B0060AD530
:102AA000A80608D521686FF0200008612046BDE81F
:102AB000F041FFF705BEBDE8F081000000B585B02C
:102AC0000021019102910391049100680B49884211
:102AD00012D10B48816941F004018161806900F0E5
:102AE000040000904FF400600190022002900490D6
:102AF00001A90448FEF732FC05B000BD002C0140DE
:102B00000010024000080140704770B504460D46B1
:102B1000002694F83C0001280FD0012084F83C00E6
:102B20006AB1042A1FD0082A32D00C2A44D00126C8
:102B3000002084F83C00304670BD022070BD29465C
:102B4000206803F047FD2068816941F00801816138
:102B50002068816921F004018161206881692A6906
:102B600011438161E4E72946206803F063FD206892
:102B7000816941F4006181612068816921F480618B
:102B80008161206881692A6941EA02218161CFE778
:102B90002946206803F080FD2068C16941F00801E2
:102BA000C1612068C16921F00401C1612068C16967
:102BB0002A691143C161BBE72946206803F09CFDE7
:102BC0002068C16941F40061C1612068C16921F4D4
:102BD0008061C1612068C1692A6941EA0221C1613D
:102BE000A6E710B50446002C03D094F83D0010B1C0
:102BF00007E0012010BD002084F83C00204600F0D2
:102C000015F8022084F83D00211D206803F094FC93
:102C100001203D3460726070A070E07020716071BE
:102C2000A071E07120722070002010BD08B500680E
:102C30000B49884212D10B48816941F400618161DE
:102C4000806900F400600090002206211820FFF740
:102C500053F8BDE808401820FFF740B808BD000051
:102C6000002C0140001002407047000030B4154AAB
:102C7000016891421DD1144A0123517881B1D2F8E3
:102C8000B814491CC2F8B814232909D30021517083
:102C9000D370C2F8B8140D494C8844F400444C80F9
:102CA000D2F8BC14491CC2F8BC14B1F57A7F00D923
:102CB00013710068B0F1804F02D130BCFEF77CBFC9
:102CC00030BC70470004004030020020700100203A
:102CD0007047704770470000F8B5044622681068D6
:102CE000D168536900F00F06002E08D1850606D57D
:102CF0008D0604D52046BDE8F84003F095BD0025BB
:102D0000002E66D003F0010601F49077374360D0BF
:102D1000C20705D0CA0503D5626C42F001026264A5
:102D2000420705D5DA0703D0626C42F00202626402
:102D3000820705D5DA0703D0626C42F004026264B0
:102D4000020707D501F02002324303D0626C42F043
:102D500008026264626C002A31D0800604D58806BD
:102D600002D5204603F060FD20684069C0F3801062
:102D7000616C090700D438B3204603F021FD2068B8
:102D8000406940061CD52068143050E8001F21F02F
:102D9000400140E80012002AF5D1E06B60B15949CA
:102DA0004163E06BFEF77CFA002808D0E06B416BD2
:102DB00001B0BDE8F04008472046FFF78BFFF8BDA3
:102DC0002046FFF787FFF8BD2046FFF783FF6564C5
:102DD000F8BD236B012B7DD1C3067BD5CB067ED5F9
:102DE00010685068009050694FF0200340064FF083
:102DF000020643D5E16B0868406880B20028E7D03E
:102E0000A28D8242E4D9E085886920282DD02068EF
:102E10000C3050E8001F21F4807140E80012002AB5
:102E2000F5D12068143050E8001F21F0010140E87E
:102E30000012002AF5D12068143050E8001F21F05C
:102E4000400140E80012002AF5D184F842302563A1
:102E500020680C3050E8001F21F0100140E80012FB
:102E6000002AF5D1E06BFEF7F7F96663A08DE18DDE
:102E7000401A81B22046FFF72CFFF8BDA08DE18DEE
:102E8000401A81B2E08D0028F7D00029F5D02068E3
:102E90000C3050E8002F22F4907240E80027002FF9
:102EA000F5D12068143050E8002F22F0010240E8EC
:102EB0000027002FF5D184F84230256320680C30BC
:102EC00050E8002F22F0100240E80023002BF5D13B
:102ED000666300E003E02046FFF7FBFEF8BD020654
:102EE00006D50A0604D52046BDE8F84003F078BDB3
:102EF0004006F3D54806F1D52046BDE8F84003F07A
:102F000086BC0000B167000870B50446002C04D0F0
:102F100094F84100002510B106E0012070BD84F84E
:102F20004050204600F024F8242084F84100206816
:102F3000C16821F40051C160204603F0D9FC20682B
:102F4000016921F4904101612068416921F02A0161
:102F500041612068C16841F40051C160656420206E
:102F600084F8410084F842006563002070BD0000D1
:102F700070B586B0002402940394049405942F4EF7
:102F800002682F49022003232E4DB24229D18A69BB
:102F900042F480428A618A6902F4804201928A691D
:102FA00042F004028A61896901F004010191010281
:102FB00002910390059302A92846FEF7CFF929153F
:102FC00002910394049402A92846FEF7C7F900224F
:102FD00006212520FEF790FE2520FEF77FFE06B095
:102FE00070BD194EB242FAD1CA6942F40032CA61C8
:102FF000CA6902F4003201928A6942F004028A61CD
:10300000896901F004010191042102910390059363
:1030100002A92846FEF7A2F908210291039404941C
:1030200002A92846FEF79AF9002206212620FEF77B
:1030300063FE2620FEF752FED1E700000038014073
:1030400000100240000801400044004090F8423067
:10305000202B01D00220704721B11AB10023036355
:1030600003F0A2BC0120704770472DE9F8430446E5
:103070000E4615461F4694F84100202802D0022033
:10308000BDE8F8837EB175B100206064212084F82A
:103090004100FEF771FA8146A584E584A068B0F589
:1030A000805F02D003E00120EAE7206920B13546C5
:1030B00000264FF0200815E00025FAE74B460022D5
:1030C00080212046009703F0BAFC18B184F84180B3
:1030D0000320D5E7ADB1216815F8010B4860E08CFD
:1030E000401EE084E08C0028E8D14B4600224021BD
:1030F0002046009703F0A3FC50B184F841800320E0
:10310000BEE736F8020B2168C0F308004860E6E726
:1031100084F841800020B3E77047FEE701684A6900
:10312000D24352050FD46FF480624A61002140F807
:10313000301F202242738173026942F0040202614F
:103140000173012070470020704700002DE9F84FFF
:1031500004460B9E0F4690461D462068016841F4C8
:10316000806101602068016841F48071016000960F
:103170004FF0011A0022514620460A9B00F014F934
:103180004FF4007940B120680068C00501D5C4F84B
:1031900040900320BDE8F88F216807F0FE00086129
:1031A000DFF8E4B03346594620460A9A00F052F957
:1031B00008B10120EEE7206841698069009032463D
:1031C00020460A9900F0E5F948B1206C042804D1A2
:1031D0002068016841F4007101600120DAE72846A7
:1031E00008F0FF0501280DD021684FEA182008617A
:1031F000324620460A9900F0CCF968B1206C0428C8
:1032000003D007E02068056108E02068016841F408
:10321000007101600120BDE720680561324620464B
:103220000A9900F0B6F948B1206C042804D120684E
:10323000016841F4007101600120ABE7206801687A
:1032400041F48071016000960022514620460A9B9D
:1032500000F0AAF838B120680068C00501D5C4F8AC
:103260004090032096E72168F8B240F00100086121
:103270003346594620460A9A00F0ECF808B101207E
:1032800088E7002086E70000020001002DE9F843EE
:103290000446DDE908970D46164698462068016801
:1032A00041F4807101604B4600224FF0011120462D
:1032B000009700F079F848B120680068C00502D591
:1032C0004FF4007020640320BDE8F883216805F006
:1032D000FE0008613B464A461C49204600F0BAF809
:1032E00008B10120F0E720684169806900903A4602
:1032F0004946204600F04DF948B1206C042804D11D
:103300002068016841F4007101600120DCE7F5B23A
:10331000B8F1010F0CD02168300A08613A464946DD
:10332000204600F036F968B1206C042803D007E08D
:103330002068056108E02068016841F400710160BF
:103340000120C1E7206805610020BDE702000100FF
:1033500070B504460D4616461FE02046FFF7DEFE18
:1033600008B1012070BD681C17D0FEF705F9801B5D
:10337000A84200D88DB920684069C04340070CD5E9
:10338000002044F8300F20216173A073216941F0BF
:10339000200121612073012070BD20684069C04375
:1033A0004007DAD4002070BD2DE9F0470446DDF86F
:1033B00020900D4690461E46C5F307472FE0701C2F
:1033C0002DD0FEF7D9F8A0EB0900B04200D836BBEB
:1033D000012F17D02068806925EA00000004000C46
:1033E0001BD0002040451AD1002044F8300F202186
:1033F0006173A073216941F02001216120730120D4
:10340000BDE8F0872068406925EA00000004000C50
:1034100001D00020E6E70120E4E70120E2E7012FE8
:103420000BD02068806925EA00000004000C0FD052
:1034300000204045C3D00020E2E72068406925EA2B
:1034400000000004000C01D00020F2E70120F0E7AA
:103450000120EEE72DE9F04704460D461646984652
:103460004FF000094FF0200AC5F3074743E02068FA
:103470004069C043400517D42068016841F40071D9
:10348000016021686FF480604861C4F8309084F86E
:103490003DA084F83E90206C40F00400206484F845
:1034A0003C900120BDE8F087701C24D0FEF764F842
:1034B000A0EB0800B04200D8EEB9012F14D020686C
:1034C000806925EA00000004000C14D0C4F8309094
:1034D00084F83DA084F83E90206C40F020002064E9
:1034E00084F83C900120DDE72068406925EA00006F
:1034F0000004000CEAD1012F08D02068806925EA79
:1035000000000004000CB2D10020CBE72068406925
:1035100025EA00000004000CF6D0A8E72DE9F041F0
:1035200004460D46164600274FF020082AE0406961
:10353000C043C0060FD421686FF0100048612763B4
:1035400084F83D8084F83E70206C206484F83C70E0
:103550000120BDE8F081FEF70FF8801BA84200D8DB
:1035600085B920684069C04340060BD544F8307FD8
:1035700084F80D80A773206940F020002061277334
:103580000120E6E720684169C9434906CFD40020FD
:10359000DFE770B504460D4616461FE02046FFF7EC
:1035A000BDFD08B1012070BD681C17D0FDF7E4FF18
:1035B000801BA84200D88DB920684069C04300062E
:1035C0000CD5002044F8300F20216173A0732169CD
:1035D00041F0200121612073012070BD2068406905
:1035E000C0430006DAD4002070BD000010B500F022
:1035F0007CF8294C13221021607800F015F9142270
:103600002021607800F010F915223021607800F058
:103610000BF916224021607800F006F919221021DA
:10362000A07800F001F91A222021A07800F0FCF81F
:1036300019223021A07800F0F7F81B224021A07851
:1036400000F0F2F817221021E07800F0EDF81822CF
:103650002021E07800F0E8F81C223021E07800F02A
:10366000E3F81D224021E07800F0DEF81722102157
:10367000207900F0D9F818222021207900F0D4F820
:103680001C223021207900F0CFF820791E22BDE8DD
:103690001040402100F0C8B80400002010B5E2201E
:1036A00000F028F90A20FDF7D5FBA22000F022F94E
:1036B000A02000F01FF9C82000F01CF9242000F021
:1036C00019F9812000F016F92B2000F013F92F20B2
:1036D00000F010F9B02000F00DF9AF2000F00AF969
:1036E000BDE81040A62000F005B910B50024204622
:1036F00000F005F8641CE4B2082CF8D310BD10B536
:10370000002100F05DF80024002000F00DF9641C99
:10371000E4B2802CF8D310BD10B5154C0122102155
:103720002046FDF722FF012220212046FDF71DFF44
:10373000012240212046FDF718FF0E4C01221146C0
:103740002046FDF712FF0A20FDF784FB002201212D
:103750002046FDF70AFF0A20FDF77CFB01221146F7
:103760002046FDF702FFBDE810403220FDF772BB96
:1037700000080140000C014070B5054600240F4EC2
:10378000002220213046FDF7F0FE280605D5012253
:1037900040213046FDF7E9FE04E00022402130469A
:1037A000FDF7E3FE012220213046FDF7DEFE68062C
:1037B000050E641CE4B2082CE2D370BD0008014081
:1037C00010B50C4640F0B00000F094F8102040EA2C
:1037D000141000F08FF804F00F00BDE8104000F066
:1037E00089B800002DE9F047064689469046002535
:1037F0000C4F3046761CF6B24946FFF7E1FF002435
:1038000004EBC50000EB0810385C00F08DF8641C78
:10381000E4B2082CF4D36D1CEDB2022DE9D3BDE85F
:10382000F0870000508900082DE9F04706468946D8
:10383000904600250C4F3046761CF6B24946FFF7FD
:10384000BFFF002404EB051000EB4810385C00F0CB
:103850006BF8641CE4B2102CF4D36D1CEDB2022D95
:10386000E9D3BDE8F0870000D08B00082DE9F047D0
:1038700006468946904600250C4F3046761CF6B227
:103880004946FFF79DFF002404EB451000EBC810EC
:10389000385C00F049F8641CE4B2202CF4D36D1CB1
:1038A000EDB2042DE9D3BDE8F08700007097000861
:1038B0002DE9F04706468946904600250C4F3046D4
:1038C000761CF6B24946FFF77BFF002404EBC500E7
:1038D00000EB0810385C00F027F8641CE4B2082CF8
:1038E000F4D36D1CEDB2022DE9D3BDE8F0870000E2
:1038F000308A000870B505460A4C00221021204687
:10390000FDF733FE002280212046FDF72EFE2846DB
:10391000FFF732FF2046BDE8704001221021FDF77D
:1039200024BE00000008014070B505460A4C002284
:1039300010212046FDF719FE012280212046FDF7C7
:1039400014FE2846FFF718FF2046BDE8704001220C
:103950001021FDF70ABE00000008014030B5ABB0F1
:103960001C22984924A8FCF739FC002124A804F063
:103970000CFA954D68651C2292491C311DA8FCF774
:103980002DFC00211DA804F000FAA8651C228D4919
:10399000383116A8FCF722FC002116A804F0F5F92E
:1039A000E8651C22874954310FA8FCF717FC002159
:1039B0000FA804F0EAF928661C228249703108A891
:1039C000FCF70CFC002108A804F0DFF968661C2253
:1039D0007C498C3101A8FCF701FC002101A804F00E
:1039E000D4F9A8660422A5F1D8010020FDF75CF8FF
:1039F000A5F1D800A5F58074C178027841EA02618A
:103A000042788078120442EA0020014321620422B5
:103A100004F12C011046FDF747F804F12C00C178A1
:103A2000027841EA026142788078120442EA00207A
:103A300001436162042204F1A8011420FDF734F867
:103A400004F1A800C178027841EA026142788078E6
:103A5000120442EA002001432164042204F1AC0173
:103A60001820FDF721F804F1AC00C178027841EA92
:103A7000026142788078120442EA002001436164C6
:103A8000042204F1C8012220FDF70EF804F1C80059
:103A9000C178027841EA026142788078120442EAF1
:103AA00000200143A164042204F1F0012620FCF768
:103AB000FBFF04F1F0000178C27841EA022182782C
:103AC0004078120642EA00400143E164206AE06760
:103AD000042204F5A0713020FCF7E6FF04F5A07085
:103AE0000178C27841EA026182784078120242EAA3
:103AF000004001432165042204F584714020FCF755
:103B0000D3FF04F584700178C27841EA02618278BB
:103B10004078120242EA004001436960042204F541
:103B20008C714420FCF7C0FF04F58C700178C278DA
:103B300041EA026182784078120242EA0040014381
:103B40006961042204F594714820FCF7ADFF04F587
:103B500094700178C27841EA02618278407812025A
:103B600042EA004001436962042204F59C7152203C
:103B7000FCF79AFF04F59C700178C27841EA026173
:103B800082784078120242EA0040014369630122D0
:103B9000E11D0820FCF788FF04F18001606A0860DD
:103BA000FCF703FD0022094BFCF782FCFCF74AFD01
:103BB0000546E06FFCF7F4FC2946FCF7BDFB2061ED
:103BC0002BB030BD709D000804010020000024408F
:103BD0002DE9F04786B000240294039404940594E0
:103BE0004748816941F010018161816901F010014C
:103BF0000191816941F020018161816901F0200119
:103C00000191816941F004018161816901F0040140
:103C10000191816941F008018161806900F008002B
:103C20000190DFF8E0A04FF44045002229465046BD
:103C3000FDF79BFCDFF8D080002249F2F0014046FE
:103C4000FDF793FCDFF8C490002201214846FDF700
:103C50008CFC0122170339464846FDF786FC029585
:103C60000125039504940226059602A95046FDF706
:103C700075FB02960394049402A94046FDF76EFB7F
:103C800048F2F000029003950494059602A940467C
:103C9000FDF764FB029503950494059602A9484636
:103CA000FDF75CFB40F6064002900394049502A9E0
:103CB0004846FDF753FB02970395049403260596A7
:103CC00002A94846FDF74AFB280202900394049596
:103CD00002A94046FDF742FB02970395049505961D
:103CE00002A94046FDF73AFBF820029003940494A1
:103CF00002A94846FDF732FB06B0BDE8F087000098
:103D0000001002400010014000080140000C01407A
:103D100010B50D480B4901600C49416000218160DC
:103D2000C1604FF48042026141618161C161016201
:103D3000FDF728FC002803D0BDE81040FDF714BAB9
:103D400010BD00000054004080090020A086010042
:103D500010B510480E4901604FF482714160002196
:103D60008160C160022202610122426152028261CD
:103D70001822C2610162416281620A21C162FEF7BA
:103D80000DFB002803D0BDE81040FDF7EDB910BDD4
:103D900000380040D409002030B591B000240F94C1
:103DA00010941C2108A8FCF732FA20216846FCF781
:103DB0002EFA20481E4901604721416084604FF47B
:103DC0007A75C560046144618461FEF70AFF08B139
:103DD000FDF7CAF90F9410940FA91648FEF79CFC42
:103DE00008B1FDF7C1F96020089009950A940C9478
:103DF0000D940E940C2208A90E48FEF786FE08B119
:103E0000FDF7B2F9009401940294039404944FF4E2
:103E100000500590079469460648FEF752FC08B129
:103E2000FDF7A2F90348FEF749FE11B030BD0000CE
:103E3000002C01402C0A002010B586B0002402940A
:103E4000039404940594009401941348114901606B
:103E50004721416084603121C16004618461FEF7C3
:103E60008FFC08B1FDF780F94FF48050029002A951
:103E70000948FEF711FD08B1FDF776F900940194A9
:103E800069460548FEF748FC002801D0FDF76CF9AB
:103E900006B010BD00040040740A002010B586B0C2
:103EA000002402940394049405940094019413480C
:103EB000114901604721416084603121C160046182
:103EC0008461FEF75DFC08B1FDF74EF94FF48050B8
:103ED000029002A90948FEF7DFFC08B1FDF744F99A
:103EE0000094019469460548FEF716FC002801D0AD
:103EF000FDF73AF906B010BD00080040BC0A0020EA
:103F000010B50E480C4901604FF4E13141600021C9
:103F10008160C16001610C2242618161C161FEF773
:103F2000F3FF08B1FDF720F9BDE810400122044974
:103F30000248FFF78BB8000000380140040B002056
:103F40007001002010B50C480A4901604FF4E131BE
:103F5000416000218160C16001610C224261816188
:103F6000C161FEF7D1FF002803D0BDE81040FDF786
:103F7000FBB810BD004400404C0B0020FEE770B5BC
:103F80004FF6FF7200244AF201050CE0035D5A402F
:103F90000023D60702D052086A4000E052085B1C9A
:103FA000082BF6DB641C8C42F0DB100A40EA02208E
:103FB00080B270BD10B5194CE07800282CD0617922
:103FC000A01D891EFFF7DBFF80B26179621D8B5C4B
:103FD000521E895C03EB012189B2884219D1A07974
:103FE0002178884215D1E079112812D2DFE800F05B
:103FF0001111110911110C111111111111111111BE
:104000000F0000F063F804E000F04CF901E000F06C
:1040100007F800206071E07010BD00003002002041
:104020002DE9F047264D6C7A2E7A04EB062082B2F9
:10403000EF7A95F80AC007EB0C2083B20020A5F1B7
:1040400040080CE005EB400191F80E90497B09EB2C
:10405000012102EB000928F81910401C80B2984297
:10406000F0D3A87985F85E02E87985F85F0285F8D3
:10407000606285F8614285F862C285F86372062144
:104080001048FFF77CFF010A85F8641285F8650285
:1040900001220D4F160331463846FDF766FA00241B
:1040A000281990F85E0200F05DF9641CA4B2082C97
:1040B000F6D331463846BDE8F0470022FDF755BA41
:1040C000300200208E040020000801402DE9F0415C
:1040D000614E6248B21C3146006803F0A1FC6048A2
:1040E000B21D311D006803F09BFC5E4806F10A0218
:1040F000911E006803F094FC5B4806F10E02911ECD
:10410000006803F08DFC594806F11202911E006808
:1041100003F086FC564806F11602911E006803F073
:104120007FFC544806F11A02911E006803F078FCE7
:10413000514806F11E02911E006803F071FC4F48C1
:1041400006F12202911E006803F06AFC4C4806F159
:104150002602911E006803F063FC4A4806F12A0219
:10416000911E006803F05CFC474806F12E02911E88
:10417000006803F055FC454806F13202911E0068C4
:1041800003F04EFC424806F13602911E006803F02F
:1041900047FC404806F13A02911E006803F040FCDB
:1041A0003D4806F13E02911E006803F039FC06F11D
:1041B0004005687A297A00EB012087B2E87AA97A6B
:1041C00000EB012083B2287885F85E02294603209F
:1041D00081F85F025800032481F86002002010E09B
:1041E000391836F81120611C2C444FEA122CC9B240
:1041F00084F85EC24C1C2944E4B281F85E22401C63
:10420000C0B29842ECD321462448FFF7B8FE020A18
:10421000611C6319C9B283F85E224A1C2944D6B2D4
:1042200081F85E020122DFF87880170339464046A4
:10423000FDF79BF9002406E0281990F85E0200F0D3
:1042400091F8641CE4B2B442F6D339464046BDE866
:10425000F0410022FDF789B9F00100209400002010
:10426000980000209C000020C0000020C400002016
:10427000C8000020DC000020E0000020E400002056
:10428000FC00002004010020140100202401002073
:10429000340100204C010020500100208E04002039
:1042A000000801402DE9F041234D687A297A00EB9E
:1042B000012082B2E87AA97A00EB0120A5F1400141
:1042C00021F81200297885F85E122B46062183F822
:1042D0005F122C46130A84F86032234683F8612269
:1042E000020A83F862221A4682F8630202F25E2012
:1042F000FFF745FE2246010A82F86412114608269D
:1043000081F865020122DFF8348017033946404600
:10431000FDF72BF9002406E0281990F85E0200F062
:1043200021F8641CA4B2B442F6D339464046BDE835
:10433000F0410022FDF719B93002002000080140C9
:104340000748012101700021417002228270C17072
:1043500001714171C0F8B814C0F8BC147047000076
:104360003002002001B5FF23012269460148FEF713
:104370007CFE08BD040B0020FEE7000010B50548D8
:104380004068400705D5042203495220FCF7A2FBF0
:10439000F9E710BD007000403C0100201CB5FDF79E
:1043A00021FDE02000904FF0011001906846FDF7DC
:1043B000D5FC002205210120FDF79EFC0120FDF720
:1043C0008DFC1CBD2DE9F04700210F220846FFF7A8
:1043D0006FFA002208211046FFF76AFA0B2210211B
:1043E0000020FFF7FFF9BB4CA06DFCF704F9C0B249
:1043F00042F21076B0FBF6F218210020FFF7F2F936
:10440000B54FA06D3946FBF797FFFCF7F4F8C0B243
:104410000A25B0FBF5F105FB110222210020FFF770
:10442000E1F9DFF8B882A06D4146FBF785FFFCF7A4
:10443000E2F8C0B2B0FBF5F105FB11022D2100201E
:10444000FFF7D0F9DFF89892A06D4946FBF774FFAB
:10445000FCF7D1F8C0B2B0FBF5F105FB1102382131
:104460000020FFF7BFF9A06DFCF7C5F8C0B2B0FBA4
:10447000F5F105FB110243210020FFF7B3F91622E5
:104480004C210020FFF714FA0F2200210220FFF731
:104490000FFA012208210220FFF70AFA0B2210214D
:1044A0000220FFF79FF9E06DFCF7A5F8C0B2B0FB62
:1044B000F6F218210220FFF795F93946E06DFBF777
:1044C0003BFFFCF798F8C0B2B0FBF5F105FB110219
:1044D00022210220FFF786F94146E06DFBF72CFF11
:1044E000FCF789F8C0B2B0FBF5F105FB11022D21F4
:1044F0000220FFF777F94946E06DFBF71DFFFCF757
:104500007AF8C0B2B0FBF5F105FB110238210220A8
:10451000FFF768F9E06DFCF76EF8C0B2B0FBF5F19B
:1045200005FB110243210220FFF75CF916224C2102
:104530000220FFF7BDF90F2200210420FFF7B8F990
:10454000022208210420FFF7B3F90B2210210420D6
:10455000FFF748F9206EFCF74EF8C0B2B0FBF6F258
:1045600018210420FFF73EF93946206EFBF7E4FEE0
:10457000FCF741F8C0B2B0FBF5F105FB11022221B6
:104580000420FFF72FF94146206EFBF7D5FEFCF71C
:1045900032F8C0B2B0FBF5F105FB11022D21042069
:1045A000FFF720F94946206EFBF7C6FEFCF723F81B
:1045B000C0B2B0FBF5F105FB110238210420FFF772
:1045C00011F9206EFCF717F8C0B2B0FBF5F105FB4E
:1045D000110243210420FFF705F916224C21042083
:1045E000FFF766F9012200210620FFF71DF90222DC
:1045F00010210620FFF718F90B2220210620FFF7D3
:10460000F1F83849A06FFBF797FEFBF7F4FFC2B251
:104610002C210620FFF7E6F83349A06FFBF78CFE4C
:10462000FBF7E9FFC0B2B0FBF5F105FB1102372142
:104630000620FFF7D7F82D49A06FFBF77DFEFBF7AB
:10464000DAFFC0B2B0FBF5F105FB110242210620F2
:10465000FFF7C8F83946A06FFBF76EFEFBF7CBFFFC
:10466000C0B2B0FBF5F105FB11024D210620FFF7AA
:10467000B9F84146A06FFBF75FFEFBF7BCFFC0B285
:10468000B0FBF5F105FB110258210620FFF7AAF84F
:104690004946A06FFBF750FEFBF7ADFFC0B2B0FB81
:1046A000F5F105FB110263210620FFF79BF8A06FCF
:1046B000FBF7A1FFC0B2B0FBF5F105FB11026E21C3
:1046C0000620FFF78FF8BDE8F04716227821062074
:1046D000FFF7EEB88400002000007A440000C842D2
:1046E00000002041002474490050C34700401C468C
:1046F00008B507494FF4FA520968B1FBF2F141439A
:10470000009100BF0098411E0091FAD208BD000040
:10471000800100202DE9F04104460E46DFF8488074
:104720004FF48057002239464046FCF71EFFE0B2A6
:1047300002F06AFA2009C0F30310000102F064FAE3
:104740000025002405E000F083F82A021518641CF7
:10475000E4B2B442F7D3012239464046FCF705FFE4
:104760002846BDE8F0810000000C014070B5374ECE
:10477000A6F18005286CFBF713FF3169FBF77EFF7C
:1047800022D3286CFBF70CFF7169FBF777FF1BD373
:10479000286CFBF705FFB169FBF770FF14D3686C59
:1047A000FBF7FEFE3169FBF773FF0DD3686CFBF777
:1047B000F7FE7169FBF76CFF06D3686CFBF7F0FE40
:1047C0007169FBF765FF05D2286C022802D9012028
:1047D000687270BDA86CFBF7E3FEF16BFBF74EFF50
:1047E0000DD3A86CFBF7DCFE316CFBF747FF06D35B
:1047F000A86CFBF7D5FE316CFBF740FF04D2A86C28
:1048000010B10220687270BDB06DFBF7F4FEEC6C65
:10481000A04209D8F06DFBF7EEFEA04204D8306E3E
:10482000FBF7E9FEA04204D9012C02D903206872EB
:1048300070BD06488030C16B286D814203D910B12C
:104840000420687270BD0020687270BD8400002072
:104850000EB5002001904FF47A700090012302AA57
:1048600001A90348FDF72EFE9DF808000EBD0000CB
:10487000D4090020F8B504460E46154633460122F9
:1048800002212046009500F017F828B1606D40F035
:10489000200060650320F8BD3346002280212046B9
:1048A000009500F009F828B1606D40F020006065C7
:1048B0000320F8BD0020F8BD2DE9F84304460F465B
:1048C00091461E46089DFCF757FE401B351AFCF723
:1048D00053FE804626480068C0F3CB306843009002
:1048E0003AE0701C38D0FCF747FEA0EB0800A84265
:1048F00003D215B1009858B32BE02068416821F02D
:10490000E00141606068B0F5827F0BD1A068B0F52E
:10491000004F02D0B0F5806F04D12068016821F00B
:1049200040010160A06AB0F5005F09D1206801680C
:1049300021F4005101602068016841F400510160D8
:10494000012050346070002020700320BDE8F883FF
:1049500000250098401E00902068806837EA00001B
:1049600004D000204845BCD10020EFE70120F9E742
:104970008001002010B5424C2069FBF750FE024632
:104980000B4640A002F04EF96069FBF748FE024674
:104990000B463FA002F046F9A069FBF740FE024635
:1049A0000B463EA002F03EF9E06BFBF738FE0246F4
:1049B0000B463DA002F036F9206CFBF730FE0246B4
:1049C0000B463CA002F02EF9606CFBF728FE024675
:1049D0000B463BA002F026F9A06DFBF720FE024635
:1049E0000B463AA002F01EF9E06DFBF718FE0246F6
:1049F0000B4639A002F016F9206EFBF710FE0246B6
:104A00000B4638A002F00EF9A06FFBF708FE024635
:104A10000B4637A002F006F980342068FBF7FFFD53
:104A200002460B4635A002F0FDF82069FBF7F7FDC2
:104A300002460B4636A002F0F5F8206AFBF7EFFDC0
:104A400002460B4637A002F0EDF8206BFBF7E7FDBE
:104A500002460B4638A002F0E5F8E06CFBF7DFFDFC
:104A600002460B4639A002F0DDF8A06CFBF7D7FD3B
:104A70000246BDE810400B4639A002F0D3B8000052
:104A80008400002055413A202566560A00000000A7
:104A900055423A202566560A0000000055433A2048
:104AA0002566560A0000000049413A202566410A61
:104AB0000000000049423A202566410A000000003B
:104AC00049433A202566410A0000000050413A203F
:104AD0002566570A0000000050423A202566570A12
:104AE0000000000050433A202566570A00000000ED
:104AF000464551543A202566570A00004465706CBB
:104B00006574655F413A202566572F680A000000EA
:104B10004465706C6574655F423A202566572F685E
:104B20000A0000004465706C6574655F433A202597
:104B300066572F680A0000004465706C6574655FF5
:104B4000616C6C3A202566572F680A00706F776594
:104B5000725F666163746F723A2025660A00000016
:104B600055467265713A202566487A0A00000000B1
:104B7000CA4CDFF82C93DFF82CB304210720FFF791
:104B8000C9FD6060FBF711FDC74AC84BFBF71EFC6F
:104B9000FBF758FDC1492061803948610421082094
:104BA000FFF7B8FDA060FBF700FDC04BC04A2F33F4
:104BB000FBF70CFCFBF746FDB84960618039886162
:104BC00004210920FFF7A6FDE060FBF7EEFCB74BE0
:104BD000B84A1C33FBF7FAFBFBF734FDAF49A06181
:104BE00080390646C8612069FBF705FD4FF47A71EC
:104BF00048430546E0616069FBF7FDFC20623046F2
:104C0000FBF7F9FC6062A5490020803988810846DD
:104C1000C58104210B20FFF77DFD2063FBF7C5FC58
:104C20004D465E462A463346FBF7D0FBFBF70AFDAE
:104C3000E06304210C20FFF76DFD6063FBF7B5FC1A
:104C40002A463346FBF7C2FBFBF7FCFC2064042139
:104C50000D20FFF75FFDA063FBF7A7FC2A46334654
:104C6000FBF7B4FBFBF7EEFC60642068FBF79DFCF0
:104C70000022914BFBF71CFCFBF7E4FC0546874840
:104C80008038C06FFBF78CFC2946FBF755FB834946
:104C90008039086104211420FFF73CFDE064FBF734
:104CA00076FC6066FBF7BBFC844FDFF814823A4663
:104CB0004346FBF78BFBFBF7C5FC02F04EFCA065FF
:104CC00004211520FFF726FD2065FBF760FCA06698
:104CD000FBF7A5FC7B4D7C4E2A463346FBF776FB63
:104CE000FBF7B0FC02F039FCE06504211620FFF769
:104CF00011FD6065FBF74BFCE066FBF790FC2A4674
:104D00003346FBF763FBFBF79DFC02F026FC2066B5
:104D100004211720FFF7FEFC6067FBF738FC5F49B2
:104D200082468039886708460069FBF778FC0546AB
:104D30000E465046FBF773FC3A464346FBF746FBEC
:104D40000022624BFBF742FB2A463346FBF7B0FBDF
:104D5000FBF778FC02F001FCA06703212320FFF79A
:104D6000D9FC4E49D031086002F085FC4B498031B6
:104D7000C864322002F0FCFF03213020FFF7CAFC98
:104D8000E06746498031496845182846FBF70DFC25
:104D90004F4E504F32463B46FBF718FBFBF752FC99
:104DA0003E498031086001F10800290C4170290A50
:104DB0008170057003213120FFF7ACFC3749803149
:104DC000C860496945182846FBF7EFFB32463B4669
:104DD000FBF7FCFAFBF736FC30498031086101F142
:104DE0001800290C4170290A8170057003213220B6
:104DF000FFF790FC29498031C861496A4518284667
:104E0000FBF7D3FB32463B46FBF7E0FAFBF71AFC15
:104E100022498031086201F12800290C4170290AD9
:104E20008170057003213320FFF774FC1B4980312A
:104E3000C862496B45182846FBF7B7FB32463B462C
:104E4000FBF7C4FAFBF7FEFB1449803108633831E5
:104E50002A0C4A702A0A8A700D70FBF7B3FB0F49BF
:104E60008031C86303215720FFF754FC0B49803180
:104E70004864FBF795FBFBF7D2FB02460B4600208C
:104E80001549FBF715FBFBF7DDFB0449803188640E
:104E90004FF4FA7002F06CFF6FE60000840000200F
:104EA00036F22CF48730C73E97EBDC946917E93E65
:104EB000BCDDBB72765E4A7B00002440C51D894E76
:104EC0001EB0333F8C8CD97F97AB333F00409F405F
:104ED000C6C51198FBD3513F00408F414FF0040BE2
:104EE0004FF47A7900250A2664274FF0020801243E
:104EF000DFF848A4FCF73AF98AF808009AF80000AD
:104F0000F0B1012848D002287CD003287BD00428A7
:104F10007AD0052879D0062878D0072877D00828B5
:104F200076D0092875D00A2874D00B2873D00C28A5
:104F300072D00D2871D00E2870D00F286FD0EFE3FB
:104F4000FE490122C91D0820FBF7AEFDFB48C01D2C
:104F50000078012806D0022807D0032808D00428AA
:104F60000BD108E0FBF77AFF07E0FBF72BFE04E02C
:104F7000FFF728FA01E002F0BFFBFCF7F7F804287E
:104F8000DDD10221EE48FCF7E1FA0028F9D08AF8D9
:104F90000040FEF7AAFBD2E702F092FECCE0FCF75D
:104FA000E5F801280FD10421E548FCF7CFFA0028E5
:104FB000F9D09AF80500401CC0B28AF80500042810
:104FC00001D98AF80540FCF7D1F802280FD14FF437
:104FD0008061DB48FCF7BAFA0028F8D09AF805009F
:104FE000401EC0B28AF8050008B98AF805B09AF8E0
:104FF0000500012814D0022835D0032855D00428F4
:1050000030D174E0AAE0B3E1AEE22EE3BAE3EFE31D
:10501000EFE3EFE3EFE3EFE3EFE3EFE3EFE3EFE300
:1050200000210C220846FEF7DDFB0D2200210220A4
:10503000FEF7D8FB0D2200210420FEF7D3FB0D2242
:1050400000210620FEF7CEFBFCF790F804286FD174
:105050000221BB48FCF77AFA0028F9D08AF80080D0
:10506000FEF743FB64E000210D220846FEF7BAFB81
:105070000C2200210220FEF7B5FB0D2200210420A6
:10508000FEF7B0FB0D2200210620FEF7ABFBFCF77C
:105090006DF804284CD10221A948FCF757FA0028E2
:1050A000F9D003208AF8000042E000210D220846D2
:1050B000FEF798FB0D2200210220FEF793FB0C2245
:1050C00000210420FEF78EFB0D2200210620FEF7B2
:1050D00089FBFCF74BF804282AD102219848FCF7F9
:1050E00035FA0028F9D006208AF8000020E00021D7
:1050F0000D220846FEF776FB0D2200210220FEF766
:1051000071FB0D2200210420FEF76CFB0C22002114
:105110000620FEF767FBFCF729F8042808D10221D6
:105120008748FCF713FA0028F9D00E208AF800000F
:10513000FCF71CF8032805D09AF8000001283FF47A
:105140002EAFFCE64FF400617D48FCF7FFF9002824
:10515000F8D08AF80050FEF7C8FAF0E6FEF746FAF3
:10516000F6E0FCF703F801280FD104217448FCF79E
:10517000EDF90028F9D09AF80500401CC0B28AF871
:105180000500042801D98AF80540FBF7EFFF022843
:105190000FD14FF480616A48FCF7D8F90028F8D0A5
:1051A0009AF80500401EC0B28AF8050008B98AF8CE
:1051B00005B09AF80500012806D0022833D003284C
:1051C00060D004282ED18CE000210C220846FEF786
:1051D00009FB0D2200210220FEF704FB0D22002115
:1051E0000420FEF7FFFA0D2200210620FEF7FAFA4E
:1051F000FBF7BCFF042815D102215148FCF7A6F9A2
:105200000028F9D04D49012230310820FBF762FC1B
:105210004A490122C91D0820FBF746FC8AF80050C4
:10522000FEF763FA90E000210D220846FEF7DAFA55
:105230000C2200210220FEF7D5FA0D2200210420C5
:10524000FEF7D0FA0D2200210620FEF7CBFAFBF77D
:105250008DFF042878D102213948FCF777F900281E
:10526000F9D03649012234310820FBF733FC3349A9
:105270000122C91D0820FBF717FC8AF80050FEF731
:1052800034FA61E000210D220846FEF7ABFA0D2248
:1052900000210220FEF7A6FA0C2200210420FEF7CE
:1052A000A1FA0D2200210620FEF79CFAFBF75EFF13
:1052B000042849D102212248FCF748F90028F9D0F6
:1052C0001E49012238310820FBF704FC1B4901224A
:1052D000C91D0820FBF7E8FB8AF80050FEF705FA25
:1052E00032E000210D220846FEF77CFA0D22002153
:1052F0000220FEF777FA0D2200210420FEF772FA51
:105300000C2200210620FEF76DFAFBF72FFF042880
:105310001AD102210A48FCF719F90028F9D00749E7
:1053200001223C310820FBF7D5FB04490122C91DAD
:105330000820FBF7B9FB8AF8005003E004000020C6
:10534000000C0140FEF7D1F9FBF710FF032805D050
:105350009AF8000002283FF404AFF0E54FF4006132
:10536000FE48FCF7F3F80028F8D08AF80040E6E59C
:10537000FBF730FDE8E00422F9490020FBF794FB3D
:10538000F748C178027841EA0261427880781204D5
:1053900042EA00200143CAF82010F1490422091D05
:1053A0001046FBF781FBEE49091DC8780A7840EAF0
:1053B00002604A788978120442EA01210843CAF857
:1053C0002400DAF82010B1FBF0F0FBF7E9F8CAF896
:1053D0001000FBF7CBFE01280FD10421DF48FCF7BA
:1053E000B5F80028F9D09AF80500401CC0B28AF838
:1053F0000500022801D98AF80540FBF7B7FE02280C
:105400000FD14FF48061D548FCF7A0F80028F8D000
:105410009AF80500401EC0B28AF8050008B98AF85B
:1054200005809AF80500012802D002282ED116E046
:105430000C2200210420FEF7D5F90D2200210620C0
:10544000FEF7D0F9FBF792FE04281FD10221C348D2
:10545000FCF77CF80028F9D08AF800B016E00D229D
:1054600000210420FEF7BEF90C2200210620FEF7E1
:10547000B9F9FBF77BFE042808D10221B748FCF7F5
:1054800065F80028F9D005208AF80000FBF76EFEC9
:1054900003285FD0DAF82000B0FBF9F0B0FBF6F19A
:1054A00006FB110200210220FEF79CF9DAF8200029
:1054B000B0FBF7F0B0FBF6F106FB11020821022069
:1054C000FEF790F9DAF82000B0FBF6F0B0FBF6F149
:1054D00006FB110210210220FEF784F9DAF8200001
:1054E000B0FBF6F106FB110218210220FEF77AF953
:1054F0000B222D210220FEF775F9DAF82400B0FB0B
:10550000F7F0B0FBF6F106FB110240210220FEF796
:1055100069F9DAF82400B0FBF6F0B0FBF6F106FB0F
:10552000110248210220FEF75DF90A2250210220D3
:10553000FEF758F9DAF82400B0FBF6F106FB110289
:1055400058210220FEF74EF99AF8000003283FF494
:1055500012AFF4E44FF400618048FBF7F7FF002836
:10556000F8D08AF80040EAE4FEF7BFF84CE0FBF719
:10557000FDFD012808D1DAF8200042F20F718842BF
:1055800002D2401CCAF82000FBF7F0FD022805D12A
:10559000DAF8200010B1401ECAF82000DAF8200026
:1055A000B0FBF9F0B0FBF6F106FB11022921032054
:1055B000FEF718F9DAF82000B0FBF7F0B0FBF6F1CF
:1055C00006FB110234210320FEF70CF9DAF8200063
:1055D000B0FBF6F0B0FBF6F106FB11023F21032011
:1055E000FEF700F9DAF82000B0FBF6F106FB110235
:1055F0004A210320FEF7F6F8FBF7B8FD032808D090
:10560000FBF7B4FD04280FD09AF800000428AED0B0
:1056100095E44FF400615148FBF798FF0028F8D05B
:1056200003208AF800008AE402214C48FBF78EFF31
:105630000028F9D0DAF820004949020E0A70020C5D
:105640004A70020A8A70C87004220020FBF742FAEE
:1056500003208AF80000DAF82000CAF87C004048ED
:10566000DAF824105830016069E4FEF73EF853E0A0
:10567000FBF77CFD01280ED104213848FBF766FFBB
:105680000028F9D0DAF8240042F20F71884202D2E1
:10569000401DCAF82400FBF769FD02280DD14FF424
:1056A00080612E48FBF752FF0028F8D0DAF824007A
:1056B000012802D9401FCAF82400DAF82400B0FB00
:1056C000F7F0B0FBF6F106FB110229210320FEF7EB
:1056D00089F8DAF82400B0FBF6F0B0FBF6F106FB2F
:1056E000110234210320FEF77DF80A223F21032016
:1056F000FEF778F8DAF82400B0FBF6F106FB1102A9
:105700004A210320FEF76EF8FBF730FD032808D08E
:10571000FBF72CFD04280FD09AF800000528A7D02D
:105720000DE24FF400610D48FBF710FF0028F8D0A0
:1057300003208AF8000002E202210848FBF706FF76
:105740000028F9D0DAF824000549020E091D0A7074
:10575000020C4A70020A8A70C87003E0000C014013
:105760002C00002004221046FBF7B4F903208AF82D
:105770000000FE48DAF824100160DAF82000CAF8C8
:105780007C00DCE102F0D6FEC5E0FBF7EFFC01286F
:105790000FD10421F648FBF7D9FE0028F9D09AF87A
:1057A0000500401CC0B28AF80500042801D98AF817
:1057B0000540FBF7DBFC02280FD14FF48061EC4879
:1057C000FBF7C4FE0028F8D09AF80500401EC0B2CE
:1057D0008AF8050008B98AF805B09AF8050001288A
:1057E0000FD002282FD003284FD004282AD16DE0F3
:1057F000A1E014E1A4E14EE2FDE2B6E3FEE3FEE344
:10580000FEE300210C220846FDF7ECFF0D220021EB
:105810000220FDF7E7FF0D2200210420FDF7E2FF43
:105820000D2200210620FDF7DDFFFBF79FFC042879
:105830006DD10221CE48FBF789FE0028F9D0072060
:105840008AF8000063E000210D220846FDF7CAFF38
:105850000C2200210220FDF7C5FF0D2200210420AB
:10586000FDF7C0FF0D2200210620FDF7BBFFFBF76F
:105870007DFC04284BD10221BD48FBF767FE0028C0
:10588000F9D008208AF8000041E000210D220846E6
:10589000FDF7A8FF0D2200210220FDF7A3FF0C2237
:1058A00000210420FDF79EFF0D2200210620FDF7B8
:1058B00099FFFBF75BFC042829D10221AC48FBF7D8
:1058C00045FE0028F9D08AF8006020E000210D2272
:1058D0000846FDF787FF0D2200210220FDF782FF19
:1058E0000D2200210420FDF77DFF0C22002106205F
:1058F000FDF778FFFBF73AFC042808D102219C4809
:10590000FBF724FE0028F9D00B208AF80000FBF7F3
:105910002DFC032805D09AF8000006283FF435AF87
:105920000DE14FF400619248FBF710FE0028F8D01B
:105930008AF8004003E101F0E9F861E0FBF716FCAA
:1059400001280FD104218A48FBF700FE0028F9D076
:105950009AF80500401CC0B28AF80500022801D957
:105960008AF80540FBF702FC02280FD14FF4806152
:105970007F48FBF7EBFD0028F8D09AF80500401EA1
:10598000C0B28AF8050008B98AF805809AF80500BF
:10599000012802D002282FD117E00C22002102207A
:1059A000FDF720FF0D2200210420FDF71BFFFBF770
:1059B000DDFB042820D102216D48FBF7C7FD00283C
:1059C000F9D009208AF8000016E00D2200210220FB
:1059D000FDF708FF0C2200210420FDF703FFFBF771
:1059E000C5FB042808D102216148FBF7AFFD002860
:1059F000F9D00C208AF80000FBF7B8FB032804D08C
:105A00009AF80000072899D099E04FF400615848AF
:105A1000FBF79CFD0028F8D08AF800408FE0FDF7E6
:105A200064FE59E0DAF84800632802D96320CAF816
:105A30004800FBF79BFB01280AD104214C48FBF7E7
:105A400085FD0028F9D0DAF84800401CCAF8480063
:105A5000FBF78CFB02280CD14FF480614448FBF724
:105A600075FD0028F8D0DAF8480010B1401ECAF8D9
:105A70004800FBF77BFB032833D0DAF84800B0FB83
:105A8000F7F0B0FBF6F106FB110229210320FDF728
:105A9000A9FEDAF84800B0FBF6F0B0FBF6F106FB21
:105AA000110234210320FDF79DFEDAF84800B0FB17
:105AB000F6F106FB11023F210320FDF793FE0022C1
:105AC0004A210320FDF7F4FEFBF750FB032813D017
:105AD000FBF74CFB04281AD09AF800000828A1D044
